:100000000C942A000C9447000C9447000C94470071
:100010000C9447000C9447000C9447000C94470044
:100020000C9447000C9447000C9447000C94470034
:100030000C9447000C9469000C9447000C94470002
:100040000C9447000C9447000C9447000C94470014
:100050000C94470011241FBECFE5D8E0DEBFCDBF12
:1000600010E0A0E6B0E0EAE9F9E002C005900D92E8
:10007000A636B107D9F710E0A6E6B0E001C01D92A0
:10008000A139B107E1F70E9404010C94CB040C9450
:100090000000DF93CF93CDB7DEB7EBE2F0E0108244
:1000A000EAE2F0E088E18083AAE2B0E0EAE2F0E090
:1000B000808188698C93E0E4F0E086EA8083E0E464
:1000C000F0E01082E9E2F0E08AE18083CF91DF91F5
:1000D00008951F920F920FB60F9211242F933F9302
:1000E0008F939F93EF93FF93DF93CF93CDB7DEB7BB
:1000F000EBE2F0E08081882F90E08C7190700097A7
:1001000049F0ECE2F0E08081809366008FE3809319
:10011000660040C0809167008823B9F18091680033
:10012000882369F4ECE2F0E08081882F90E09093DE
:100130006A008093690081E0809368002BC0ECE244
:10014000F0E08081882F90E090936C0080936B00AA
:100150001092680080916B0090916C00982F882716
:1001600090936C0080936B002091690030916A003D
:1001700080916B0090916C00820F931F90936A00A6
:10018000809369001092670005C0ECE2F0E0808186
:1001900080936600CF91DF91FF91EF919F918F91B6
:1001A0003F912F910F900FBE0F901F901895DF93E6
:1001B000CF93CDB7DEB710926D0019C0EBE2F0E03F
:1001C0008081882F90E0807290700097B9F3ACE244
:1001D000B0E080916D00882F90E0FC01EF58FF4F58
:1001E00080818C9380916D008F5F80936D008091F2
:1001F0006D00882F90E0FC01EF58FF4F808188232D
:10020000E9F6CF91DF910895DF93CF93CDB7DEB7B5
:10021000EAE3F0E08FEF8083E7E3F0E010820E94F2
:100220004900789459C0E6E3F0E08081882F90E09F
:1002300081709070009741F500D000D000D0EDB7EC
:10024000FEB7319681E790E0918380838EE190E064
:100250009383828380E690E0958384830E94E60105
:100260008DB79EB706960FB6F8949EBF0FBE8DBF92
:100270000E94D700E6E3F0E08081882F90E0817053
:1002800090700097B9F328C0E6E3F0E080818823FE
:100290001CF100D000D000D0EDB7FEB7319681E759
:1002A00090E0918380838EE190E09383828382E665
:1002B00090E0958384830E94E6018DB79EB70696F1
:1002C0000FB6F8949EBF0FBE8DBF0E94D700E6E325
:1002D000F0E080818823DCF780916600882309F4B0
:1002E000A2CFF89480916600883509F500D000D03F
:1002F00000D0EDB7FEB7319681E790E0918380831F
:100300008EE190E09383828384E690E095838483FA
:100310000E94E6018DB79EB706960FB6F8949EBF71
:100320000FBE8DBF0E94D700109266004DC0809115
:100330006600813419F510926A001092690081E01C
:10034000809367007894809167008823E1F7F894A0
:100350008091690090916A009093700080936F0083
:1003600010926A001092690010926600EBE3F0E0D0
:1003700080916F0090917000808326C0809166000C
:10038000823411F510926A001092690081E0809326
:1003900067007894809167008823E1F7F894809152
:1003A000690090916A009093900080938F00109262
:1003B0006A001092690010926600EBE3F0E0809111
:1003C0008F00909190008083789486CFAEE0B0E06B
:1003D000ECEEF1E00C94A2040D891E898F89988DB2
:1003E00097FF02C080E090E801979E838D831A8377
:1003F000098386E08C839E01255E3F4FCE010196E6
:10040000698D7A8DA9010E9417024D815E8157FD89
:100410000AC02F813885421753070CF49A01020F46
:10042000131FF80110822E96E4E00C94BE04ABE09A
:10043000B0E0EDE1F2E00C9494043C012B015A0190
:10044000FC0117821682838181FD03C06FEF7FEF6D
:10045000C6C19AE0892E1E010894211C311CF301AB
:100460002381F20123FD859123FF81912F018823B0
:1004700009F4B2C1853239F423FD859123FF8191BE
:100480002F01853229F490E0B3010E940A04E7CFDE
:10049000982FFF24EE249924FFE1FF15D0F09B3222
:1004A00069F09C3228F4903259F0933291F40EC0E6
:1004B0009D3249F0903369F441E024C052E0F52ABE
:1004C00084E0F82A28C098E0F92A25C0E0E1FE2A55
:1004D00022C0F7FC29C0892F80538A3070F4F6FEC1
:1004E00005C0989C902C1124980E15C0E89CE02C17
:1004F0001124E80EF0E2FF2A0EC09E3229F4F6FC29
:100500006BC140E4F42A07C09C3619F450E8F52A80
:1005100002C0983649F4F20123FD959123FF919191
:100520002F01992309F0B8CF892F8554833018F013
:100530008052833038F444E050E0A40EB51E5FE3EF
:1005400059830FC0933631F0933779F0933509F022
:1005500056C020C0F5018081898342E050E0A40E9E
:10056000B51E610101E010E012C0F501C080D1802C
:10057000F6FC03C06FEF7FEF02C0692D70E042E030
:1005800050E0A40EB51EC6010E94FF038C015FE778
:10059000F52214C0F501C080D180F6FC03C06FEFD6
:1005A0007FEF02C0692D70E042E050E0A40EB51E5E
:1005B000C6010E94F4038C0150E8F52AF3FE07C03F
:1005C0001AC080E290E0B3010E940A04EA948E2DE2
:1005D00090E008171907A8F30EC0F601F7FC859103
:1005E000F7FE81916F0190E0B3010E940A04E110CF
:1005F000EA94015010400115110579F7EAC09436CC
:1006000011F0993669F5F7FE08C0F50120813181B6
:100610004281538184E090E00AC0F501808191819C
:100620009C01442737FD4095542F82E090E0A80EAE
:10063000B91E9FE6F92257FF09C0509540953095A5
:1006400021953F4F4F4F5F4FE0E8FE2ACA01B901A5
:10065000A1012AE030E00E943604D82ED21840C012
:10066000953729F41F2D1F7E2AE030E01DC01F2D75
:10067000197F9F3661F0903720F4983509F0ACC0AF
:100680000FC0903739F0983709F0A6C004C028E0B1
:1006900030E00AC0106114FD146020E130E004C0B5
:1006A00014FD166020E132E017FF08C0F5016081FB
:1006B00071818281938144E050E008C0F50180811E
:1006C0009181BC0180E090E042E050E0A40EB51EB4
:1006D000A1010E943604D82ED2188FE7F82EF122FD
:1006E000F6FE0BC05EEFF522D91438F4F4FE07C015
:1006F000F2FC05C08FEEF82202C01D2D01C0192D9D
:10070000F4FE0DC0FE01ED0DF11D8081803319F462
:1007100099EEF92208C01F5FF2FE05C003C08F2DBD
:10072000867809F01F5F0F2DF3FC14C0F0FE0FC098
:100730001E1510F09D2C0BC09D2C9E0C911A1E2D89
:1007400006C080E290E0B3010E940A041F5F1E15FC
:10075000C0F304C01E1510F4E11A01C0EE2404FF1A
:100760000FC080E390E0B3010E940A0402FF1DC0A5
:1007700001FD03C088E790E00EC088E590E00BC063
:10078000802F867891F001FF02C08BE201C080E2E9
:10079000F7FC8DE290E0B3010E940A0406C080E3FA
:1007A00090E0B3010E940A049A94D914C0F3DA9439
:1007B000F101ED0DF11D808190E0B3010E940A046A
:1007C000DD20A9F706C080E290E0B3010E940A0490
:1007D000EA94EE20C1F743CEF30166817781CB0125
:1007E0002B96E2E10C94B004FC010590615070403E
:1007F0000110D8F7809590958E0F9F1F0895FC01EA
:100800006150704001900110D8F7809590958E0F3F
:100810009F1F08950F931F93CF93DF938C01EB01DC
:100820008B8181FF1BC082FF0DC02E813F818C8197
:100830009D812817390764F4E881F9810193F983D0
:10084000E88306C0E885F985802F0995892B31F466
:100850008E819F8101969F838E8302C00FEF1FEFD1
:10086000C801DF91CF911F910F910895FA01AA2736
:10087000283051F1203181F1E8946F936E7F6E5FE3
:100880007F4F8F4F9F4FAF4FB1E03ED0B4E03CD091
:10089000670F781F891F9A1FA11D680F791F8A1F74
:1008A000911DA11D6A0F711D811D911DA11D20D0DB
:1008B00009F468943F912AE0269F11243019305D95
:1008C0003193DEF6CF010895462F4770405D419386
:1008D000B3E00FD0C9F7F6CF462F4F70405D4A33D3
:1008E00018F0495D31FD4052419302D0A9F7EACF9B
:1008F000B4E0A6959795879577956795BA95C9F7CA
:1009000000976105710508959B01AC010A2E0694BC
:100910005795479537952795BA95C9F7620F731F75
:10092000841F951FA01D08952F923F924F925F92B2
:100930006F927F928F929F92AF92BF92CF92DF92EF
:10094000EF92FF920F931F93CF93DF93CDB7DEB754
:10095000CA1BDB0B0FB6F894DEBF0FBECDBF0994E8
:100960002A88398848885F846E847D848C849B843F
:10097000AA84B984C884DF80EE80FD800C811B814D
:10098000AA81B981CE0FD11D0FB6F894DEBF0FBE7C
:0A099000CDBFED010895F894FFCFEC
:06099A00410042005A007A
:00000001FF
