:100000000C942A000C9447000C9447000C94470071
:100010000C9447000C9447000C9447000C94470044
:100020000C9447000C9447000C9447000C94470034
:100030000C9447000C9469000C9447000C94470002
:100040000C9447000C9447000C9447000C94470014
:100050000C94470011241FBECFE5D8E0DEBFCDBF12
:1000600010E0A0E6B0E0E6EAFFE002C005900D92E5
:10007000A439B107D9F710E0A4E9B0E001C01D929E
:10008000AF3BB107E1F70E9404010C94D1070C9437
:100090000000DF93CF93CDB7DEB7EBE2F0E0108244
:1000A000EAE2F0E088E18083AAE2B0E0EAE2F0E090
:1000B000808188698C93E0E4F0E086EA8083E0E464
:1000C000F0E01082E9E2F0E08AE18083CF91DF91F5
:1000D00008951F920F920FB60F9211242F933F9302
:1000E0008F939F93EF93FF93DF93CF93CDB7DEB7BB
:1000F000EBE2F0E08081882F90E08C7190700097A7
:1001000049F0ECE2F0E08081809394008FE38093EB
:10011000940040C0809195008823B9F180919600A9
:10012000882369F4ECE2F0E08081882F90E09093DE
:1001300098008093970081E0809396002BC0ECE2BA
:10014000F0E08081882F90E090939A00809399004E
:10015000109296008091990090919A00982F88278C
:1001600090939A0080939900209197003091980085
:100170008091990090919A00820F931F909398001C
:10018000809397001092950005C0ECE2F0E080812A
:1001900080939400CF91DF91FF91EF919F918F9188
:1001A0003F912F910F900FBE0F901F901895DF93E6
:1001B000CF93CDB7DEB710929B0019C0EBE2F0E011
:1001C0008081882F90E0807290700097B9F3ACE244
:1001D000B0E080919B00882F90E0FC01E156FF4F3A
:1001E00080818C9380919B008F5F80939B00809196
:1001F0009B00882F90E0FC01E156FF4F808188230F
:10020000E9F6CF91DF910895DF93CF93CDB7DEB7B5
:100210000E94D90380E060E00E9438040E942E040E
:1002200081E060E00E94530400D000D000D0EDB720
:10023000FEB731968FE990E0918380838EE190E064
:100240009383828380E690E0958384830E94EC040C
:100250008DB79EB706960FB6F8949EBF0FBE8DBFA2
:100260008FE990E00E94A7040E942E04EAE3F0E0E8
:100270008FEF8083E7E3F0E010820E9449007894DA
:1002800059C0E6E3F0E08081882F90E080749070A0
:10029000009741F100D000D000D0EDB7FEB7319605
:1002A0008FE990E0918380838EE190E09383828355
:1002B00080E790E0958384830E94EC048DB79EB71D
:1002C00006960FB6F8949EBF0FBE8DBF0E94D70052
:1002D000E6E3F0E08081882F90E0807490700097D2
:1002E000B9F728C0E6E3F0E0808188231CF500D050
:1002F00000D000D0EDB7FEB731968FE990E0918342
:1003000080838EE190E09383828382E790E09583FF
:1003100084830E94EC048DB79EB706960FB6F894BE
:100320009EBF0FBE8DBF0E94D700E6E3F0E0808144
:100330008823DCF380919400882309F4A2CFF894F9
:1003400080919400883509F500D000D000D0EDB739
:10035000FEB731968FE990E0918380838EE190E043
:100360009383828384E790E0958384830E94EC04E6
:100370008DB79EB706960FB6F8949EBF0FBE8DBF81
:100380000E94D700109294009BC080919400813409
:1003900009F049C0109298001092970081E0809374
:1003A00095007894809195008823E1F7F8948091E6
:1003B00097009091980090939E0080939D001092DA
:1003C000980010929700109294000E942E042091A1
:1003D0009D0030919E008DB79EB708970FB6F89498
:1003E0009EBF0FBE8DBFEDB7FEB731968FE990E08F
:1003F000918380838EE190E09383828386E790E00F
:1004000095838483378326830E94EC048DB79EB73F
:1004100008960FB6F8949EBF0FBE8DBF8FE990E08F
:100420000E94A7044DC080919400823409F048C016
:10043000109298001092970081E080939500789434
:10044000809195008823E1F7F8948091970090912E
:1004500098009093BE008093BD0010929800109277
:100460009700109294000E942E042091BD003091BC
:10047000BE008DB79EB708970FB6F8949EBF0FBE0B
:100480008DBFEDB7FEB731968FE990E09183808301
:100490008EE190E09383828384E890E09583848367
:1004A000378326830E94EC048DB79EB708960FB65B
:1004B000F8949EBF0FBE8DBF8FE990E00E94A70405
:1004C000789438CFDF93CF930F92CDB7DEB789837F
:1004D00089818150F0F70F90CF91DF910895DF93DC
:1004E000CF9300D0CDB7DEB79A83898389819A8173
:1004F00081509040E8F70F900F90CF91DF910895D1
:10050000DF93CF930F92CDB7DEB7AAE3B0E0EAE373
:10051000F0E080818E608C93AAE3B0E0EAE3F0E043
:1005200080818F708C93ABE3B0E0EBE3F0E08081EF
:10053000846F8C93ABE3B0E0EBE3F0E08081877FE6
:100540008C9382E00E946202ABE3B0E0EBE3F0E068
:10055000808182608C9381E00E946202E9E3F0E096
:100560008081807F8983ABE3B0E0EBE3F0E08081C2
:100570008D7F8C9382E00E946202ABE3B0E0EBE3FC
:10058000F0E0808182608C9381E00E946202E9E366
:10059000F0E08081982F92959F708981892B8983C3
:1005A000ABE3B0E0EBE3F0E080818D7F8C93898159
:1005B0000F90CF91DF910895DF93CF930F92CDB736
:1005C000DEB7AAE3B0E0EAE3F0E080818E608C93CE
:1005D000AAE3B0E0EAE3F0E080818F708C93ABE3B4
:1005E000B0E0EBE3F0E080818C6F8C9382E00E94BE
:1005F0006202ABE3B0E0EBE3F0E0808182608C93D9
:1006000081E00E946202E9E3F0E08081807F8983DB
:10061000ABE3B0E0EBE3F0E080818D7F8C9382E090
:100620000E946202ABE3B0E0EBE3F0E08081826025
:100630008C9381E00E946202E9E3F0E08081982FD0
:1006400092959F708981892B8983ABE3B0E0EBE3BE
:10065000F0E080818D7F8C9389810F90CF91DF9125
:100660000895DF93CF93CDB7DEB70E948002882331
:10067000E4F3CF91DF910895DF93CF93CDB7DEB749
:1006800082E00E946202ABE3B0E0EBE3F0E0808145
:1006900082608C9381E00E946202ABE3B0E0EBE306
:1006A000F0E080818D7F8C93CF91DF910895DF936F
:1006B000CF930F92CDB7DEB789830E943103AAE3AF
:1006C000B0E0EAE3F0E080818E6F8C93ABE3B0E0C2
:1006D000EBE3F0E0808181708C93ABE3B0E0EBE37F
:1006E000F0E08081982F8981807F892B8C930E94F4
:1006F0003C03ABE3B0E0EBE3F0E0808181708C93EE
:10070000ABE3B0E0EBE3F0E08081282F8981882F14
:1007100090E082959295907F9827807F9827822BF2
:100720008C930E943C030F90CF91DF910895DF934B
:10073000CF930F92CDB7DEB789830E943103AAE32E
:10074000B0E0EAE3F0E080818E6F8C93ABE3B0E041
:10075000EBE3F0E0808181708C93ABE3B0E0EBE3FE
:10076000F0E08081982F8981807F8860892B8C932D
:100770000E943C03ABE3B0E0EBE3F0E080818170EA
:100780008C93ABE3B0E0EBE3F0E08081282F89812C
:10079000882F90E082959295907F9827807F982768
:1007A0008860822B8C930E943C030F90CF91DF9145
:1007B0000895DF93CF93CDB7DEB7AAE3B0E0EAE3C5
:1007C000F0E080818E6F8C9388E99AE30E946F023B
:1007D000ABE3B0E0EBE3F0E0808181708C93ABE3BE
:1007E000B0E0EBE3F0E0808180638C930E943C03F7
:1007F00084E090E10E946F020E943C0384E690E056
:100800000E946F020E943C0384E690E00E946F0207
:10081000ABE3B0E0EBE3F0E080818F7E8C930E944D
:100820003C0384E690E00E946F0288E20E94570336
:1008300086E00E9457030E94240481E061E00E9448
:100840003804CF91DF910895DF93CF93CDB7DEB712
:1008500081E00E945703CF91DF910895DF93CF93FA
:10086000CDB7DEB782E00E945703CF91DF910895A4
:10087000DF93CF9300D00F92CDB7DEB789836A8321
:100880008981882319F08EE08B8302C09CE09B83D2
:100890008A819B81890F0E9457030F900F900F90C0
:1008A000CF91DF910895DF93CF9300D0CDB7DEB71E
:1008B00089836A8389818230A8F48A81803190F4A7
:1008C0008981882F90E00296002496958795079459
:1008D000969587950794982F802D982F8A81890F58
:1008E0000E9457030F900F90CF91DF910895DF93EF
:1008F000CF930F92CDB7DEB70E9431030E948002E2
:10090000882F90E0807490701982009711F081E038
:10091000898389810F90CF91DF910895DF93CF93E1
:10092000CDB7DEB70E9431030E9480028F73CF9152
:10093000DF910895DF93CF930F92CDB7DEB7898310
:1009400089810E9497030F90CF91DF910895DF93E3
:10095000CF9300D0CDB7DEB79A8389830BC0E981EE
:10096000FA81208189819A8101969A838983822FD5
:100970000E949A04E981FA818081882381F70F908F
:100980000F90CF91DF910895DF93CF9300D000D0E7
:1009900000D0CDB7DEB79E838D8303C08C810E94CB
:1009A0009A048D819E819B838A838D819E8101968D
:1009B0009E838D83EA81FB818491898389818C83E5
:1009C0008C81882359F726960FB6F894DEBF0FBEA8
:1009D000CDBFCF91DF910895AEE0B0E0E2EFF4E05B
:1009E0000C94A8070D891E898F89988D97FF02C0E6
:1009F00080E090E801979E838D831A83098386E0C7
:100A00008C839E01255E3F4FCE010196698D7A8DC4
:100A1000A9010E941D054D815E8157FD0AC02F81ED
:100A20003885421753070CF49A01020F131FF8017F
:100A300010822E96E4E00C94C407ABE0B0E0E3E251
:100A4000F5E00C949A073C012B015A01FC01178236
:100A50001682838181FD03C06FEF7FEFC6C19AE0EC
:100A6000892E1E010894211C311CF3012381F201FF
:100A700023FD859123FF81912F01882309F4B2C1C1
:100A8000853239F423FD859123FF81912F01853231
:100A900029F490E0B3010E941007E7CF982FFF24BC
:100AA000EE249924FFE1FF15D0F09B3269F09C32CF
:100AB00028F4903259F0933291F40EC09D3249F0EF
:100AC000903369F441E024C052E0F52A84E0F82A2A
:100AD00028C098E0F92A25C0E0E1FE2A22C0F7FCF0
:100AE00029C0892F80538A3070F4F6FE05C0989C87
:100AF000902C1124980E15C0E89CE02C1124E80ECF
:100B0000F0E2FF2A0EC09E3229F4F6FC6BC140E4ED
:100B1000F42A07C09C3619F450E8F52A02C098362A
:100B200049F4F20123FD959123FF91912F0199231F
:100B300009F0B8CF892F8554833018F08052833064
:100B400038F444E050E0A40EB51E5FE359830FC0B3
:100B5000933631F0933779F0933509F056C020C0C1
:100B6000F5018081898342E050E0A40EB51E610149
:100B700001E010E012C0F501C080D180F6FC03C096
:100B80006FEF7FEF02C0692D70E042E050E0A40EED
:100B9000B51EC6010E9405078C015FE7F52214C04F
:100BA000F501C080D180F6FC03C06FEF7FEF02C07B
:100BB000692D70E042E050E0A40EB51EC6010E940F
:100BC000FA068C0150E8F52AF3FE07C01AC080E24D
:100BD00090E0B3010E941007EA948E2D90E0081770
:100BE0001907A8F30EC0F601F7FC8591F7FE819175
:100BF0006F0190E0B3010E941007E110EA940150E8
:100C000010400115110579F7EAC0943611F09936B4
:100C100069F5F7FE08C0F5012081318142815381D9
:100C200084E090E00AC0F501808191819C01442715
:100C300037FD4095542F82E090E0A80EB91E9FE644
:100C4000F92257FF09C050954095309521953F4FA7
:100C50004F4F5F4FE0E8FE2ACA01B901A1012AE027
:100C600030E00E943C07D82ED21840C0953729F4B6
:100C70001F2D1F7E2AE030E01DC01F2D197F9F36DB
:100C800061F0903720F4983509F0ACC00FC0903770
:100C900039F0983709F0A6C004C028E030E00AC057
:100CA000106114FD146020E130E004C014FD1660F2
:100CB00020E132E017FF08C0F50160817181828177
:100CC000938144E050E008C0F50180819181BC012E
:100CD00080E090E042E050E0A40EB51EA1010E9429
:100CE0003C07D82ED2188FE7F82EF122F6FE0BC063
:100CF0005EEFF522D91438F4F4FE07C0F2FC05C00B
:100D00008FEEF82202C01D2D01C0192DF4FE0DC07A
:100D1000FE01ED0DF11D8081803319F499EEF92269
:100D200008C01F5FF2FE05C003C08F2D867809F052
:100D30001F5F0F2DF3FC14C0F0FE0FC01E1510F046
:100D40009D2C0BC09D2C9E0C911A1E2D06C080E27E
:100D500090E0B3010E9410071F5F1E15C0F304C08E
:100D60001E1510F4E11A01C0EE2404FF0FC080E349
:100D700090E0B3010E94100702FF1DC001FD03C0F7
:100D800088E790E00EC088E590E00BC0802F867861
:100D900091F001FF02C08BE201C080E2F7FC8DE21E
:100DA00090E0B3010E94100706C080E390E0B30119
:100DB0000E9410079A94D914C0F3DA94F101ED0D52
:100DC000F11D808190E0B3010E941007DD20A9F79A
:100DD00006C080E290E0B3010E941007EA94EE2082
:100DE000C1F743CEF30166817781CB012B96E2E117
:100DF0000C94B607FC010590615070400110D8F7C3
:100E0000809590958E0F9F1F0895FC016150704052
:100E100001900110D8F7809590958E0F9F1F08952F
:100E20000F931F93CF93DF938C01EB018B8181FF95
:100E30001BC082FF0DC02E813F818C819D812817B0
:100E4000390764F4E881F9810193F983E88306C0E6
:100E5000E885F985802F0995892B31F48E819F8152
:100E600001969F838E8302C00FEF1FEFC801DF91B1
:100E7000CF911F910F910895FA01AA27283051F1BF
:100E8000203181F1E8946F936E7F6E5F7F4F8F4FBB
:100E90009F4FAF4FB1E03ED0B4E03CD0670F781F1A
:100EA000891F9A1FA11D680F791F8A1F911DA11DFF
:100EB0006A0F711D811D911DA11D20D009F4689438
:100EC0003F912AE0269F11243019305D3193DEF6E0
:100ED000CF010895462F4770405D4193B3E00FD096
:100EE000C9F7F6CF462F4F70405D4A3318F0495D81
:100EF00031FD4052419302D0A9F7EACFB4E0A69564
:100F00009795879577956795BA95C9F70097610585
:100F1000710508959B01AC010A2E069457954795DB
:100F200037952795BA95C9F7620F731F841F951FD0
:100F3000A01D08952F923F924F925F926F927F92E1
:100F40008F929F92AF92BF92CF92DF92EF92FF92D9
:100F50000F931F93CF93DF93CDB7DEB7CA1BDB0B85
:100F60000FB6F894DEBF0FBECDBF09942A8839882A
:100F700048885F846E847D848C849B84AA84B98431
:100F8000C884DF80EE80FD800C811B81AA81B9813D
:100F9000CE0FD11D0FB6F894DEBF0FBECDBFED0151
:060FA0000895F894FFCF54
:100FA600204173736574746F2020436F7273610000
:100FB600410042005A0052504D203D202564202019
:100FC600202020005370656564203D202564202084
:040FD60020202000B7
:00000001FF
